{
  "contractName": "Decentragram",
  "abi": [
    {
      "anonymous": false,
      "inputs": [
        {
          "indexed": false,
          "internalType": "uint256",
          "name": "id",
          "type": "uint256"
        },
        {
          "indexed": false,
          "internalType": "string",
          "name": "hashCode",
          "type": "string"
        },
        {
          "indexed": false,
          "internalType": "string",
          "name": "description",
          "type": "string"
        },
        {
          "indexed": false,
          "internalType": "uint256",
          "name": "tipAmount",
          "type": "uint256"
        },
        {
          "indexed": false,
          "internalType": "address payable",
          "name": "author",
          "type": "address"
        }
      ],
      "name": "ImageCreated",
      "type": "event"
    },
    {
      "anonymous": false,
      "inputs": [
        {
          "indexed": false,
          "internalType": "uint256",
          "name": "id",
          "type": "uint256"
        },
        {
          "indexed": false,
          "internalType": "string",
          "name": "hashCode",
          "type": "string"
        },
        {
          "indexed": false,
          "internalType": "string",
          "name": "description",
          "type": "string"
        },
        {
          "indexed": false,
          "internalType": "uint256",
          "name": "tipAmount",
          "type": "uint256"
        },
        {
          "indexed": false,
          "internalType": "address payable",
          "name": "author",
          "type": "address"
        }
      ],
      "name": "ImageTipped",
      "type": "event"
    },
    {
      "inputs": [],
      "name": "imageCount",
      "outputs": [
        {
          "internalType": "uint256",
          "name": "",
          "type": "uint256"
        }
      ],
      "stateMutability": "view",
      "type": "function",
      "constant": true
    },
    {
      "inputs": [
        {
          "internalType": "uint256",
          "name": "",
          "type": "uint256"
        }
      ],
      "name": "images",
      "outputs": [
        {
          "internalType": "uint256",
          "name": "id",
          "type": "uint256"
        },
        {
          "internalType": "string",
          "name": "hashCode",
          "type": "string"
        },
        {
          "internalType": "string",
          "name": "description",
          "type": "string"
        },
        {
          "internalType": "uint256",
          "name": "tipAmount",
          "type": "uint256"
        },
        {
          "internalType": "address payable",
          "name": "author",
          "type": "address"
        }
      ],
      "stateMutability": "view",
      "type": "function",
      "constant": true
    },
    {
      "inputs": [
        {
          "internalType": "string",
          "name": "_hashCode",
          "type": "string"
        },
        {
          "internalType": "string",
          "name": "_description",
          "type": "string"
        }
      ],
      "name": "uploadPost",
      "outputs": [],
      "stateMutability": "nonpayable",
      "type": "function"
    },
    {
      "inputs": [
        {
          "internalType": "uint256",
          "name": "_id",
          "type": "uint256"
        }
      ],
      "name": "tipPost",
      "outputs": [],
      "stateMutability": "payable",
      "type": "function",
      "payable": true
    }
  ],
  "bytecode": "0x6080604052600060015534801561001557600080fd5b50610f3e806100256000396000f3fe60806040526004361061003f5760003560e01c80630cb1c7ee1461004457806374d3c1f81461006d578063848564821461008957806392053b63146100ca575b600080fd5b34801561005057600080fd5b5061006b600480360381019061006691906108bd565b6100f5565b005b6100876004803603810190610082919061096b565b61028c565b005b34801561009557600080fd5b506100b060048036038101906100ab919061096b565b6105f7565b6040516100c1959493929190610a67565b60405180910390f35b3480156100d657600080fd5b506100df61075d565b6040516100ec9190610ac8565b60405180910390f35b600082511161010357600080fd5b600081511161011157600080fd5b600073ffffffffffffffffffffffffffffffffffffffff163373ffffffffffffffffffffffffffffffffffffffff160361014a57600080fd5b60003390506001600081548092919061016290610b12565b91905055506040518060a001604052806001548152602001848152602001838152602001600081526020018273ffffffffffffffffffffffffffffffffffffffff1681525060008060015481526020019081526020016000206000820151816000015560208201518160010190816101da9190610d66565b5060408201518160020190816101f09190610d66565b506060820151816003015560808201518160040160006101000a81548173ffffffffffffffffffffffffffffffffffffffff021916908373ffffffffffffffffffffffffffffffffffffffff1602179055509050507fc1d8dfa99b3f84f95d3f0bc4a768addeb97b83b20aef7f9cb6729e126bafd2f9600154848460008560405161027f959493929190610e73565b60405180910390a1505050565b600073ffffffffffffffffffffffffffffffffffffffff163373ffffffffffffffffffffffffffffffffffffffff16036102c557600080fd5b600081101580156102d857506001548111155b6102e157600080fd5b600034116102ee57600080fd5b60008060008381526020019081526020016000206040518060a00160405290816000820154815260200160018201805461032790610b89565b80601f016020809104026020016040519081016040528092919081815260200182805461035390610b89565b80156103a05780601f10610375576101008083540402835291602001916103a0565b820191906000526020600020905b81548152906001019060200180831161038357829003601f168201915b505050505081526020016002820180546103b990610b89565b80601f01602080910402602001604051908101604052809291908181526020018280546103e590610b89565b80156104325780601f1061040757610100808354040283529160200191610432565b820191906000526020600020905b81548152906001019060200180831161041557829003601f168201915b50505050508152602001600382015481526020016004820160009054906101000a900473ffffffffffffffffffffffffffffffffffffffff1673ffffffffffffffffffffffffffffffffffffffff1673ffffffffffffffffffffffffffffffffffffffff168152505090506000816080015190508073ffffffffffffffffffffffffffffffffffffffff166108fc349081150290604051600060405180830381858888f193505050501580156104ec573d6000803e3d6000fd5b5034826060018181516104ff9190610ed4565b91508181525050816000808581526020019081526020016000206000820151816000015560208201518160010190816105389190610d66565b50604082015181600201908161054e9190610d66565b506060820151816003015560808201518160040160006101000a81548173ffffffffffffffffffffffffffffffffffffffff021916908373ffffffffffffffffffffffffffffffffffffffff1602179055509050507f1be5317bca8d3f70dc1efe89958be71bff36cdca33fc00a6423e25eb2f1d492f8383602001518460400151856060015186608001516040516105ea959493929190610a67565b60405180910390a1505050565b600060205280600052604060002060009150905080600001549080600101805461062090610b89565b80601f016020809104026020016040519081016040528092919081815260200182805461064c90610b89565b80156106995780601f1061066e57610100808354040283529160200191610699565b820191906000526020600020905b81548152906001019060200180831161067c57829003601f168201915b5050505050908060020180546106ae90610b89565b80601f01602080910402602001604051908101604052809291908181526020018280546106da90610b89565b80156107275780601f106106fc57610100808354040283529160200191610727565b820191906000526020600020905b81548152906001019060200180831161070a57829003601f168201915b5050505050908060030154908060040160009054906101000a900473ffffffffffffffffffffffffffffffffffffffff16905085565b60015481565b6000604051905090565b600080fd5b600080fd5b600080fd5b600080fd5b6000601f19601f8301169050919050565b7f4e487b7100000000000000000000000000000000000000000000000000000000600052604160045260246000fd5b6107ca82610781565b810181811067ffffffffffffffff821117156107e9576107e8610792565b5b80604052505050565b60006107fc610763565b905061080882826107c1565b919050565b600067ffffffffffffffff82111561082857610827610792565b5b61083182610781565b9050602081019050919050565b82818337600083830152505050565b600061086061085b8461080d565b6107f2565b90508281526020810184848401111561087c5761087b61077c565b5b61088784828561083e565b509392505050565b600082601f8301126108a4576108a3610777565b5b81356108b484826020860161084d565b91505092915050565b600080604083850312156108d4576108d361076d565b5b600083013567ffffffffffffffff8111156108f2576108f1610772565b5b6108fe8582860161088f565b925050602083013567ffffffffffffffff81111561091f5761091e610772565b5b61092b8582860161088f565b9150509250929050565b6000819050919050565b61094881610935565b811461095357600080fd5b50565b6000813590506109658161093f565b92915050565b6000602082840312156109815761098061076d565b5b600061098f84828501610956565b91505092915050565b6109a181610935565b82525050565b600081519050919050565b600082825260208201905092915050565b60005b838110156109e15780820151818401526020810190506109c6565b60008484015250505050565b60006109f8826109a7565b610a0281856109b2565b9350610a128185602086016109c3565b610a1b81610781565b840191505092915050565b600073ffffffffffffffffffffffffffffffffffffffff82169050919050565b6000610a5182610a26565b9050919050565b610a6181610a46565b82525050565b600060a082019050610a7c6000830188610998565b8181036020830152610a8e81876109ed565b90508181036040830152610aa281866109ed565b9050610ab16060830185610998565b610abe6080830184610a58565b9695505050505050565b6000602082019050610add6000830184610998565b92915050565b7f4e487b7100000000000000000000000000000000000000000000000000000000600052601160045260246000fd5b6000610b1d82610935565b91507fffffffffffffffffffffffffffffffffffffffffffffffffffffffffffffffff8203610b4f57610b4e610ae3565b5b600182019050919050565b7f4e487b7100000000000000000000000000000000000000000000000000000000600052602260045260246000fd5b60006002820490506001821680610ba157607f821691505b602082108103610bb457610bb3610b5a565b5b50919050565b60008190508160005260206000209050919050565b60006020601f8301049050919050565b600082821b905092915050565b600060088302610c1c7fffffffffffffffffffffffffffffffffffffffffffffffffffffffffffffffff82610bdf565b610c268683610bdf565b95508019841693508086168417925050509392505050565b6000819050919050565b6000610c63610c5e610c5984610935565b610c3e565b610935565b9050919050565b6000819050919050565b610c7d83610c48565b610c91610c8982610c6a565b848454610bec565b825550505050565b600090565b610ca6610c99565b610cb1818484610c74565b505050565b5b81811015610cd557610cca600082610c9e565b600181019050610cb7565b5050565b601f821115610d1a57610ceb81610bba565b610cf484610bcf565b81016020851015610d03578190505b610d17610d0f85610bcf565b830182610cb6565b50505b505050565b600082821c905092915050565b6000610d3d60001984600802610d1f565b1980831691505092915050565b6000610d568383610d2c565b9150826002028217905092915050565b610d6f826109a7565b67ffffffffffffffff811115610d8857610d87610792565b5b610d928254610b89565b610d9d828285610cd9565b600060209050601f831160018114610dd05760008415610dbe578287015190505b610dc88582610d4a565b865550610e30565b601f198416610dde86610bba565b60005b82811015610e0657848901518255600182019150602085019450602081019050610de1565b86831015610e235784890151610e1f601f891682610d2c565b8355505b6001600288020188555050505b505050505050565b6000819050919050565b6000610e5d610e58610e5384610e38565b610c3e565b610935565b9050919050565b610e6d81610e42565b82525050565b600060a082019050610e886000830188610998565b8181036020830152610e9a81876109ed565b90508181036040830152610eae81866109ed565b9050610ebd6060830185610e64565b610eca6080830184610a58565b9695505050505050565b6000610edf82610935565b9150610eea83610935565b9250828201905080821115610f0257610f01610ae3565b5b9291505056fea26469706673582212209a6de710c7910ff1847f168d8981570cb5b26a9d9a157dfb1d125ec1d684c64964736f6c63430008130033",
  "immutableReferences": {},
  "source": "// SPDX-License-Identifier: MIT\npragma solidity ^0.8.19;\n\nimport \"@openzeppelin/contracts/utils/Address.sol\";\n\ncontract Decentragram {\n  // // Test\n  // uint256 public myNumber;\n\n  // function setNumber(uint256 _number) public {\n  //   myNumber = _number;\n  // }\n  mapping(uint => Image) public images;\n  uint public imageCount = 0;\n  \n  struct Image {\n    uint id;\n    string hashCode;\n    string description;\n    uint tipAmount;\n    address payable author;\n  }\n\n  event ImageCreated(\n    uint id,\n    string hashCode,\n    string description,\n    uint tipAmount,\n    address payable author\n  );\n\n  event ImageTipped(\n    uint id,\n    string hashCode,\n    string description,\n    uint tipAmount,\n    address payable author\n  );\n\n  // create post\n  function uploadPost(string memory _hashCode, string memory _description) public {\n    require(bytes(_hashCode).length > 0);\n    require(bytes(_description).length > 0);\n    require(msg.sender != address(0x0));\n\n    address payable _payableSender = payable(msg.sender);\n\n    imageCount++;\n    images[imageCount] = Image(imageCount, _hashCode, _description, 0, _payableSender);\n    emit ImageCreated(imageCount, _hashCode, _description, 0, _payableSender);\n  }\n  \n  function tipPost(uint _id) public payable {\n    require(msg.sender != address(0x0));\n    require(_id >= 0 && _id <= imageCount);\n    require(msg.value > 0);\n\n    Image memory _image = images[_id];\n    address payable _author = _image.author;\n    payable(_author).transfer(msg.value);\n    _image.tipAmount += msg.value;\n    // update the image list\n    images[_id] = _image;\n    emit ImageTipped(_id, _image.hashCode, _image.description, _image.tipAmount, _image.author);\n  }\n}",
  "sourcePath": "/Users/erjiangao/course-work/ece382v-blockchain/projects/Instagram-dApp/contracts/Decentragram.sol",
  "compiler": {
    "name": "solc",
    "version": "0.8.19+commit.7dd6d404.Emscripten.clang"
  },
  "schemaVersion": "3.4.13",
  "updatedAt": "2023-04-18T02:14:55.134Z",
  "networkType": "ethereum",
  "devdoc": {
    "kind": "dev",
    "methods": {},
    "version": 1
  },
  "userdoc": {
    "kind": "user",
    "methods": {},
    "version": 1
  }
}